{
  "contractName": "FraudLogger",
  "abi": [
    {
      "inputs": [],
      "stateMutability": "nonpayable",
      "type": "constructor"
    },
    {
      "anonymous": false,
      "inputs": [
        {
          "indexed": true,
          "internalType": "uint256",
          "name": "transactionId",
          "type": "uint256"
        },
        {
          "indexed": false,
          "internalType": "uint256",
          "name": "timestamp",
          "type": "uint256"
        },
        {
          "indexed": false,
          "internalType": "uint256",
          "name": "fraudScore",
          "type": "uint256"
        }
      ],
      "name": "FraudDetected",
      "type": "event"
    },
    {
      "inputs": [
        {
          "internalType": "uint256",
          "name": "",
          "type": "uint256"
        }
      ],
      "name": "fraudRecords",
      "outputs": [
        {
          "internalType": "uint256",
          "name": "timestamp",
          "type": "uint256"
        },
        {
          "internalType": "uint256",
          "name": "fraudScore",
          "type": "uint256"
        },
        {
          "internalType": "bool",
          "name": "exists",
          "type": "bool"
        }
      ],
      "stateMutability": "view",
      "type": "function"
    },
    {
      "inputs": [],
      "name": "owner",
      "outputs": [
        {
          "internalType": "address",
          "name": "",
          "type": "address"
        }
      ],
      "stateMutability": "view",
      "type": "function"
    },
    {
      "inputs": [
        {
          "internalType": "uint256",
          "name": "_transactionId",
          "type": "uint256"
        },
        {
          "internalType": "uint256",
          "name": "_fraudScore",
          "type": "uint256"
        }
      ],
      "name": "logFraud",
      "outputs": [],
      "stateMutability": "nonpayable",
      "type": "function"
    },
    {
      "inputs": [
        {
          "internalType": "uint256",
          "name": "_transactionId",
          "type": "uint256"
        }
      ],
      "name": "getFraudRecord",
      "outputs": [
        {
          "internalType": "uint256",
          "name": "timestamp",
          "type": "uint256"
        },
        {
          "internalType": "uint256",
          "name": "fraudScore",
          "type": "uint256"
        },
        {
          "internalType": "bool",
          "name": "exists",
          "type": "bool"
        }
      ],
      "stateMutability": "view",
      "type": "function"
    }
  ],
  "bytecode": "0x608060405234801561000f575f80fd5b503360015f6101000a81548173ffffffffffffffffffffffffffffffffffffffff021916908373ffffffffffffffffffffffffffffffffffffffff1602179055506106a88061005d5f395ff3fe608060405234801561000f575f80fd5b506004361061004a575f3560e01c80631778503e1461004e5780631acb5117146100805780632a695d38146100b25780638da5cb5b146100ce575b5f80fd5b61006860048036038101906100639190610398565b6100ec565b604051610077939291906103ec565b60405180910390f35b61009a60048036038101906100959190610398565b61011d565b6040516100a9939291906103ec565b60405180910390f35b6100cc60048036038101906100c79190610421565b610187565b005b6100d661033c565b6040516100e3919061049e565b60405180910390f35b5f602052805f5260405f205f91509050805f015490806001015490806002015f9054906101000a900460ff16905083565b5f805f805f808681526020019081526020015f206040518060600160405290815f820154815260200160018201548152602001600282015f9054906101000a900460ff1615151515815250509050805f015181602001518260400151935093509350509193909250565b60015f9054906101000a900473ffffffffffffffffffffffffffffffffffffffff1673ffffffffffffffffffffffffffffffffffffffff163373ffffffffffffffffffffffffffffffffffffffff1614610216576040517f08c379a000000000000000000000000000000000000000000000000000000000815260040161020d90610537565b60405180910390fd5b5f8211610258576040517f08c379a000000000000000000000000000000000000000000000000000000000815260040161024f9061059f565b60405180910390fd5b606481111561029c576040517f08c379a00000000000000000000000000000000000000000000000000000000081526004016102939061062d565b60405180910390fd5b6040518060600160405280428152602001828152602001600115158152505f808481526020019081526020015f205f820151815f0155602082015181600101556040820151816002015f6101000a81548160ff021916908315150217905550905050817f136b731eca5da11564e3e646ca59364f7bd3794f7dd054a98176e64ff2525d59428360405161033092919061064b565b60405180910390a25050565b60015f9054906101000a900473ffffffffffffffffffffffffffffffffffffffff1681565b5f80fd5b5f819050919050565b61037781610365565b8114610381575f80fd5b50565b5f813590506103928161036e565b92915050565b5f602082840312156103ad576103ac610361565b5b5f6103ba84828501610384565b91505092915050565b6103cc81610365565b82525050565b5f8115159050919050565b6103e6816103d2565b82525050565b5f6060820190506103ff5f8301866103c3565b61040c60208301856103c3565b61041960408301846103dd565b949350505050565b5f806040838503121561043757610436610361565b5b5f61044485828601610384565b925050602061045585828601610384565b9150509250929050565b5f73ffffffffffffffffffffffffffffffffffffffff82169050919050565b5f6104888261045f565b9050919050565b6104988161047e565b82525050565b5f6020820190506104b15f83018461048f565b92915050565b5f82825260208201905092915050565b7f4f6e6c79206f776e65722063616e2063616c6c20746869732066756e6374696f5f8201527f6e00000000000000000000000000000000000000000000000000000000000000602082015250565b5f6105216021836104b7565b915061052c826104c7565b604082019050919050565b5f6020820190508181035f83015261054e81610515565b9050919050565b7f496e76616c6964207472616e73616374696f6e204944000000000000000000005f82015250565b5f6105896016836104b7565b915061059482610555565b602082019050919050565b5f6020820190508181035f8301526105b68161057d565b9050919050565b7f46726175642073636f7265206d757374206265206265747765656e203020616e5f8201527f6420313030000000000000000000000000000000000000000000000000000000602082015250565b5f6106176025836104b7565b9150610622826105bd565b604082019050919050565b5f6020820190508181035f8301526106448161060b565b9050919050565b5f60408201905061065e5f8301856103c3565b61066b60208301846103c3565b939250505056fea2646970667358221220e5032360e6a95d6cae0ddc51a2ae93f9a9e846b58dd30245a4201297b67f86ae64736f6c63430008150033",
  "immutableReferences": {},
  "source": "// SPDX-License-Identifier: MIT\npragma solidity ^0.8.21;\n\ncontract FraudLogger {\n    // Event emitted when fraud is detected\n    event FraudDetected(\n        uint256 indexed transactionId,\n        uint256 timestamp,\n        uint256 fraudScore\n    );\n\n    // Struct to store fraud details\n    struct FraudRecord {\n        uint256 timestamp;\n        uint256 fraudScore;\n        bool exists;\n    }\n\n    // Mapping from transaction ID to fraud record\n    mapping(uint256 => FraudRecord) public fraudRecords;\n    address public owner;\n\n    constructor() {\n        owner = msg.sender;\n    }\n\n    modifier onlyOwner() {\n        require(msg.sender == owner, \"Only owner can call this function\");\n        _;\n    }\n\n    function logFraud(\n        uint256 _transactionId,\n        uint256 _fraudScore\n    ) external onlyOwner {\n        require(_transactionId > 0, \"Invalid transaction ID\");\n        require(_fraudScore <= 100, \"Fraud score must be between 0 and 100\");\n\n        fraudRecords[_transactionId] = FraudRecord({\n            timestamp: block.timestamp,\n            fraudScore: _fraudScore,\n            exists: true\n        });\n\n        emit FraudDetected(_transactionId, block.timestamp, _fraudScore);\n    }\n\n    function getFraudRecord(uint256 _transactionId) \n        external \n        view \n        returns (uint256 timestamp, uint256 fraudScore, bool exists) \n    {\n        FraudRecord memory record = fraudRecords[_transactionId];\n        return (record.timestamp, record.fraudScore, record.exists);\n    }\n}\n",
  "sourcePath": "C:\\Users\\sandh\\CascadeProjects\\fraud_detection\\contracts\\contracts\\contracts\\FraudLogger.sol",
  "compiler": {
    "name": "solc",
    "version": "0.8.21+commit.d9974bed.Emscripten.clang"
  },
  "schemaVersion": "3.4.16",
  "updatedAt": "2025-04-13T04:23:58.701Z",
  "devdoc": {
    "kind": "dev",
    "methods": {},
    "version": 1
  },
  "userdoc": {
    "kind": "user",
    "methods": {},
    "version": 1
  }
}